:100000000C946C000C9494000C9494000C94940048
:100010000C9494000C9494000C94461F0C9494003F
:100020000C9494000C9494000C9494000C94940000
:100030000C9494000C9494000C9494000C949400F0
:100040000C941C0F0C9494000C948C0F0C94660F61
:100050000C9494000C9494000C9494000C949400D0
:100060000C94BE0F0C949400413A00503A004C3A64
:1000700000543A00483A0000000000240027002AFB
:100080000000000000250028002B000000000023D5
:1000900000260029000404040404040404020202EB
:1000A00002020203030303030302010204081020F7
:1000B0004080010204081020010204081020800082
:1000C0000000080002010000030407000000000017
:1000D00000000000491F3E2011241FBECFEFD8E0D2
:1000E000DEBFCDBF11E0A0E0B1E0E0EAF9E402C07C
:1000F00005900D92AE37B107D9F723E0AEE7B1E036
:1001000001C01D92A73AB207E1F710E0CBE6D0E0BC
:1001100004C02197FE010E94D823CA36D107C9F72F
:100120000E94E21F0C94C3240C940000833081F0E1
:1001300028F4813099F08230A9F008958730A9F031
:100140008830C9F08430B1F4809180008F7D03C085
:10015000809180008F7780938000089584B58F7799
:1001600084BD089584B58F7DFBCF8091B0008F77DB
:100170008093B00008958091B0008F7DF9CFCF9328
:10018000DF93282F30E0F901E154FF4F8491F9010A
:10019000E655FF4FD491F901EB56FF4FC491CC23A4
:1001A000A1F081110E949600EC2FF0E0EE0FFF1FEE
:1001B000E557FF4FA591B491EC91ED2381E090E0DC
:1001C00009F480E0DF91CF91089580E090E0FACFCC
:1001D000EF92FF921F93CF93DF93C7E0D0E010E040
:1001E00083E7E82EF12C8091A1030E94BF00892BA8
:1001F000D1F3C7010197F1F78091A1030E94BF00DD
:100200008130910531F40C2E01C0880F0A94EAF771
:10021000182B8091A1030E94BF000197D1F3219771
:1002200010F7812FDF91CF911F91FF90EF900895EC
:100230001F93CF93DF93282F30E0F901E154FF4F54
:100240008491F901E655FF4FD491F901EB56FF4F28
:10025000C491CC23A9F0162F81110E949600EC2F97
:10026000F0E0EE0FFF1FEF57FF4FA591B4918FB74E
:10027000F894EC91111108C0D095DE23DC938FBF68
:10028000DF91CF911F910895DE2BF8CFCF93DF93AD
:1002900090E0FC01E655FF4F24918B569F4FFC01E7
:1002A00084918823D1F090E0880F991FFC01E958D0
:1002B000FF4FA591B491FC01EF57FF4FC591D49129
:1002C00061110EC09FB7F8948C91E22FE0958E23B8
:1002D0008C932881E223E8839FBFDF91CF9108951B
:1002E0008FB7F894EC91E22BEC938FBFF6CF3FB72A
:1002F000F8948091070290910802A0910902B091B0
:100300000A0226B5A89B05C02F3F19F00196A11D32
:10031000B11D3FBFBA2FA92F982F8827BC01CD014F
:10032000620F711D811D911D42E0660F771F881FAE
:10033000991F4A95D1F708958F929F92AF92BF92DD
:10034000CF92DF92EF92FF924B015C010E94770106
:100350006B017C010E9477016C197D098E099F0950
:10036000683E734081059105A8F321E0821A910847
:10037000A108B10888EEC80E83E0D81EE11CF11C6C
:1003800081149104A104B10429F7FF90EF90DF904C
:10039000CF90BF90AF909F908F900895CF93DF93B1
:1003A000C1EAD3E061E088810E94460160E0888173
:1003B0000E94180162E170E080E090E00E949C01E0
:1003C00061E088810E9418018BE990E00197F1F7C4
:1003D00060E08881DF91CF910C944601AF92BF928B
:1003E000CF92DF92EF92FF920F931F93CF93DF9301
:1003F0006C017B018B01040F151FEB015E01AE1830
:10040000BF08C017D10759F06991D601ED91FC9151
:100410000190F081E02DC6010995892B79F7C5017E
:10042000DF91CF911F910F91FF90EF90DF90CF90D0
:10043000BF90AF900895FC01538D448D252F30E07F
:10044000842F90E0821B930B541710F0CF960895E1
:1004500001970895FC01918D828D981761F0A28D0E
:10046000AE0FBF2FB11D5D968C91928D9F5F9F73D4
:10047000928F90E008958FEF9FEF0895FC01918D8A
:10048000828D981731F0828DE80FF11D858D90E0F7
:1004900008958FEF9FEF0895FC01918D228D892F94
:1004A00090E0805C9F4F821B91098F73992708957C
:1004B00089ED92E00E944C0221E0892B09F420E0B2
:1004C000822F08950E94580281110C940000089513
:1004D00080E090E0892B11F00C9462020895FC01F9
:1004E000A48DA80FB92FB11DA35ABF4F2C91848D95
:1004F00090E001968F739927848FA689B7892C93F2
:10050000A089B1898C91837080648C93938D848D44
:10051000981306C00288F389E02D80818F7D808347
:100520000895EF92FF920F931F93CF93DF93EC0107
:1005300081E0888F9B8D8C8D98131AC0E889F9898A
:10054000808185FF15C09FB7F894EE89FF8960838D
:10055000E889F98980818370806480839FBF81E00E
:1005600090E0DF91CF911F910F91FF90EF90089550
:10057000F62E0B8D10E00F5F1F4F0F731127E02E2B
:100580008C8D8E110CC00FB607FCFACFE889F98963
:10059000808185FFF5CFCE010E946F02F1CFEB8DF8
:1005A000EC0FFD2FF11DE35AFF4FF0829FB7F89437
:1005B0000B8FEA89FB8980818062CFCF0F931F93D5
:1005C000CF93DF938C01D0E0C0E0F801EC0FFD1F6A
:1005D0006491662341F089ED92E00E949102892B9B
:1005E00011F02196F2CFCE01DF91CF911F910F91A3
:1005F0000895CF93DF93EC01888D8823B9F0AA8901
:10060000BB89E889F9898C9185FD03C0808186FDCD
:100610000DC00FB607FCF7CF8C9185FFF2CF80811C
:1006200085FFEDCFCE010E946F02E9CFDF91CF9120
:100630000895089508952091DB01260F3327331F75
:1006400021323105ECF420915302FC0190E080E06E
:10065000243069F082E00895A091DB012191AC0182
:1006600045545E4FA40FB52FB11D2C9301968617EC
:1006700098F38091DB01680F6093DB0180E00895BF
:1006800081E008951092530281E08093520210920B
:100690002D0261E082E10E94180161E083E10E9485
:1006A0001801E9EBF0E080818E7F808380818D7F6F
:1006B000808388E48093B80085E48093BC0008952B
:1006C000CF93DF9391E09093BA018823B9F0C09162
:1006D000B800D091BA008091BC008A7B8093BC00A6
:1006E00060E082E10E94180160E083E10E9418014D
:1006F0000E944203D093BA00C093B800DF91CF911B
:1007000008958F929F92AF92BF92CF92DF92EF9215
:10071000FF920F931F93CF93DF93D0917C02D1323E
:1007200008F0D7C0182FC0917B020E9477016B019F
:100730007C018091530281116BC082E0809353024F
:10074000109352028FEF8093510210925002D09377
:100750004F02ABE5B2E0EFE2F2E080E0D81391C0E7
:1007600010922E0280912E02CC0FC82BC0932E0225
:1007700080912D02813009F088C010922D020E94D4
:1007800077016B017C0180912E028093BB008091E8
:10079000550290915602A0915702B0915802892BB0
:1007A0008A2B8B2BA1F00E947701009155021091AA
:1007B000560220915702309158026C197D098E091A
:1007C0009F09061717072807390708F442C08091C8
:1007D000BC0083FDD8CF85EC8093BC000E947701DC
:1007E0006B017C0180915302823009F450C08091EA
:1007F00051028F3F09F46FC080915102803209F499
:100800006CC080915102803309F469C084E026C035
:100810008091550290915602A0915702B0915802D2
:10082000892B8A2B8B2B09F484CF0E94770180902F
:10083000550290905602A0905702B09058026C1941
:100840007D098E099F0986169706A806B90608F045
:1008500070CF809154020E94600385E010925A028A
:1008600010927C0210925902DF91CF911F910F914B
:10087000FF90EF90DF90CF90BF90AF909F908F90C0
:1008800008959D9191938F5F69CF85EEA5CF80915B
:10089000550290915602A0915702B0915802892BAF
:1008A0008A2B8B2B09F49ECF0E9477010091550271
:1008B0001091560220915702309158026C197D090F
:1008C0008E099F09061717072807390708F08ACFEE
:1008D000C0CF81E0C3CF80E0C1CF82E0BFCF83E053
:1008E000BDCFDC0111968D919C91DC01ED91FC91C5
:1008F0000280F381E02D41E050E00995019729F451
:1009000081E00E94810391E0811190E0892F089598
:100910000F931F93CF93DF93E1E0F0E021153105B2
:1009200011F0E2E0F0E0EC01AC81BD81AE17BF0751
:1009300038F1DA018B0189819A81488151E0509325
:10094000590240937B0210925A0210927C02232B90
:1009500041F4B801CE01DF91CF911F910F910C941A
:1009600071041097B1F3FC0120813181F9012281DA
:10097000338141E050E0BD01F9010995019749F348
:1009800080E0DF91CF911F910F910895CF93DF9376
:10099000EC018B818823A1F0888191E0909359022A
:1009A00080937B0210925A0210927C0281E00E9496
:1009B000810391E0811190E0892FDF91CF9108951B
:1009C00010920C0210920B0210925A0210927C02AA
:1009D0000E94420389E193E0909301028093000218
:1009E0008AE193E09093FF018093FE0181E08B8385
:1009F000CE010E94C604982F8111CECFDDCF08957D
:100A0000E0910C0280910B02E81730F4F0E0E35F14
:100A1000FD4F808190E008958FEF9FEF08959091B2
:100A20000C0280910B022FEF3FEF981748F4E92F4B
:100A3000F0E0E35FFD4F208130E09F5F90930C0278
:100A4000C901089580910B0290910C02891B990BAA
:100A50000895CF92DF92EF92FF920F931F93CF935F
:100A6000DF937C01CB018A0120915902222389F076
:100A7000EB016B01C40ED51ECC15DD0569F0699143
:100A8000D701ED91FC910190F081E02DC70109950E
:100A9000F3CF642F0E941B03C801DF91CF911F91F8
:100AA0000F91FF90EF90DF90CF900895CF93DF9359
:100AB0001F92CDB7DEB76983209159022223F9F046
:100AC00020917C02203258F021E030E0FC01338399
:100AD000228390E080E00F90DF91CF910895809184
:100AE0005A02E82FF0E0E55AFD4F998190838F5F1D
:100AF00080935A0280937C0281E090E0ECCF61E029
:100B0000CE0101960E941B03F7CF90E080E008958C
:100B10000F931F93CF93DF93CFE8D1E007E011E06D
:100B200029913991F80180810E5F1F4F61E02130DA
:100B3000310509F060E00E941801F1E0C539DF07D6
:100B400079F7DF91CF911F910F9108952F923F92E6
:100B50004F925F926F927F928F929F92AF92BF92CD
:100B6000CF92DF92EF92FF920F931F93CF93DF9379
:100B7000DC011496ED91FC911597EF2B09F422C13D
:100B800069012A01EC01888191E0909359028093D8
:100B90007B0210925A0210927C02CD010E947104D5
:100BA000782E882309F40EC1F12CE12C33243394E0
:100BB0008C819D8186010E191F098017910708F409
:100BC0008C0128800E9477014B015C0180915302C7
:100BD000811173C0602EB0E2B01710F480E2682E6D
:100BE0003092530221E0C601801B910BE816F906F2
:100BF00008F420E020935202EFEFE09351021092AC
:100C000050028FEF860D80934F0230922E0280911A
:100C10002E02220C282A20922E0280912D02813051
:100C200009F090C010922D020E9477014B015C01E7
:100C300080912E028093BB008091550290915602C4
:100C4000A0915702B0915802892B8A2B8B2BA1F0CF
:100C50000E9477012091550230915602409157022F
:100C600050915802681979098A099B092617370794
:100C70004807590708F442C08091BC0083FDD8CFD3
:100C8000F5ECF093BC000E9477014B015C01809170
:100C90005302813009F45AC080915002861510F435
:100CA00060905002AFE2B2E0EDE0F2E080E0861545
:100CB00051F19D9191938F5FFACF80915502909160
:100CC0005602A0915702B0915802892B8A2B8B2B88
:100CD00009F47CCF0E947701209155023091560291
:100CE0004091570250915802681979098A099B0965
:100CF000261737074807590708F068CF8091540234
:100D00000E946003612C10920C0260920B0260162C
:100D1000110609F057C042018E0C9F1C5401C501F9
:100D2000881999098017910798F589819A81DC01C2
:100D3000ED91FC910284F385E02D0995F5018193F5
:100D40005F01EDCF85EE8093BC009DCF8091550271
:100D500090915602A0915702B0915802892B8A2B8C
:100D60008B2B09F494CF0E9477012091550230918A
:100D700056024091570250915802681979098A0920
:100D80009B09261737074807590708F080CFB6CFC9
:100D9000E00EF11EEC14FD0408F40ACF872DDF915C
:100DA000CF911F910F91FF90EF90DF90CF90BF9068
:100DB000AF909F908F907F906F905F904F903F90FB
:100DC0002F900895712CEACFCF93DF9300D01F921C
:100DD000CDB7DEB78B8322E030E0AE014F5F5F4FCF
:100DE000BE016D5F7F4F80918203909183030E94CB
:100DF000A60589819A819827892798270F900F90B7
:100E00000F90DF91CF910895FC0101900020E9F748
:100E10003197AF01481B590BBC0189ED92E00C944E
:100E2000EE018F929F92AF92BF920F931F93CF9339
:100E3000DF93CDB7DEB7A1970FB6F894DEBF0FBE34
:100E4000CDBF19A2423008F44AE08E010F5D1F4F5A
:100E5000842E912CB12CA12CA50194010E949723E2
:100E6000E62FB901CA01EA30F4F4E05DD801EE934F
:100E70008D01232B242B252B79F790E080E0109710
:100E800019F0CD010E940407A1960FB6F894DEBFB9
:100E90000FBECDBFDF91CF911F910F91BF90AF904B
:100EA0009F908F900895E95CE1CF4F925F926F928F
:100EB0007F928F929F92AF92BF92CF92DF92EF92EA
:100EC000FF926B017C01AC019B010E94822388236D
:100ED000C1F081E391E00E9404077C018DE391E081
:100EE0000E9404078E0D9F1DFF90EF90DF90CF9022
:100EF000BF90AF909F908F907F906F905F904F903A
:100F0000089546015701E894B7F82FEF3FEF4FE7F8
:100F10005FE7C501B4010E94822381110DC02FEF4C
:100F20003FEF4FE75FE7C501B4010E946C2118163F
:100F30001CF485E391E0CFCF2FEF3FEF4FE75FE465
:100F4000C701B6010E947D2318161CF489E391E0C5
:100F5000C2CF2FEF3FEF4FE75FECC701B6010E9412
:100F60006C2187FDF3CF20E030E0A901C701B60175
:100F70000E946C21B12CA12C87FF0AC06DE289ED83
:100F800092E00E9491025C01F7FAF094F7F8F09475
:100F90002AE037ED43EA5BE3C701B6010E94E22293
:100FA0002B013C010E944E236B017C010E947121A8
:100FB0009B01AC01C301B2010E94E1222B013C0163
:100FC0004AE0C701B6010E9411077C01EA0CFB1C34
:100FD0006EE289ED92E00E949102E80EF91E20E097
:100FE00030E040E251E4C301B2010E94D2212B0162
:100FF0003C010E944E234B01B12CA12C4AE0C501BB
:10100000B4010E941107E80EF91EC501B4010E9447
:1010100071219B01AC01C301B2010E94E12220E0D9
:1010200030E040E251E40E94D2210E944E2390E041
:1010300080E04AE00E941107E80EF91E4FCFCF93DF
:10104000DF93EC0180919B0390919C03009759F0F2
:1010500020919D0330919E032C173D0720F081E0E5
:10106000DF91CF910895BE016F5F7F4F0E94E6230D
:10107000009789F090939C0380939B03D0939E03E9
:10108000C0939D0320919F033091A003232B39F738
:10109000FC011082E4CF80E0E3CF20919F033091E8
:1010A000A003232B39F421E0FC018081882361F027
:1010B00020E00AC0BC0180919B0390919C030E9498
:1010C000B32421E0892BA1F7822F089585ED809329
:1010D000BC008091550290915602A0915702B091A8
:1010E00058020796A11DB11D23E0B695A7959795C7
:1010F00087952A95D1F72091BC0024FD03C010925A
:101100005302089540915502509156026091570242
:1011100070915802452B462B472B69F30097A10588
:10112000B10541F02AE22A95F1F700C00197A10923
:10113000B109E1CF809154020C94600361E08DE02D
:101140000E94460161E08DE00E9418018FE090E06E
:101150000E94851B60E08DE00E9418018FE090E006
:101160000E94851BEFCFCF93DF93CDB7DEB72F97CC
:101170000FB6F894DEBF0FBECDBF8EE28A8714EFA4
:10118000198721E030E0AE01475F5F4FBE01665F27
:101190007F4F80918203909183030E94880465E0D1
:1011A00070E080E090E00E949C0186EF0E94E406DF
:1011B0006C01F12CE12C809184038295880F880FBB
:1011C000807C8C5C88871F8321E030E0AE01495F22
:1011D0005F4FBE01685F7F4F8091820390918303D0
:1011E0000E94880480918403811165C265E070E0EB
:1011F00080E090E00E949C0186EF0E94E406B0E04F
:10120000A0E08824982EA92EBA2E88EF8E831E0186
:1012100026E0220E311C21E030E08E010F5F1F4FCF
:10122000A801B10180918203909183030E94A605D9
:101230008981A5019401282B2C873D874E875F87E4
:10124000309184033B878091990390919A03A70181
:101250009601281B390B41095109A0919703B091C0
:1012600098030E9490224B015C01AFE0B594A794D3
:1012700097948794AA95D1F7609191037091920306
:10128000072E000C880B990BBBE0660F771F881F99
:10129000991FBA95D1F72091930330919403032EAF
:1012A000000C440B550B280D391D4A1D5B1D0E9477
:1012B000B923820E931EA41EB51E40EA841A4FE085
:1012C000940AA108B108A5019401C501B4010E94C6
:1012D00087232B013C018CE07594679457944794C5
:1012E0008A95D1F7A0918903B0918A030E94DE23E9
:1012F0006B017C019DE0F594E794D794C7949A958F
:10130000D1F7A0918B03B0918C03A30192010E94AD
:10131000DE239C01552737FD5095452F2C0D3D1D93
:101320004E1D5F1D2E5F3F4F4F4F5F4F62E0559543
:101330004795379527956A95D1F730584F4F5F4FAE
:10134000A0919503B09196030E9490226B017C01BD
:101350007FE0F694E794D794C7947A95D1F788E024
:1013600090E05B85851B91092C853D854E855F85C9
:1013700004C056954795379527958A95D2F72C87BF
:101380003D874E875F87A0918D03B0918E03A301A7
:1013900092010E94DE232B013C01EBE075946794DF
:1013A00057944794EA95D1F7A0918703B0918803A9
:1013B000A50194010E94DE23FBE095958795779522
:1013C0006795FA95D1F7640D751D861D971D4090A0
:1013D000850350908603052C000C66087708A2E070
:1013E000440C551C661C771CAA95D1F7640D751D1D
:1013F000861D971D0B8404C0660F771F881F991FD9
:101400000A94D2F76E5F7F4F8F4F9F4F24E030E0FA
:1014100040E050E00E94B9238C859D85AE85BF8554
:10142000821B930BA40BB50B9C01AD0160E573EC23
:1014300080E090E00B8404C096958795779567953A
:101440000A94D2F70E94872397FD48C1660F771F41
:10145000881F991FA70196010E94972369017A01AD
:101460009927F7FC9A958F2D7E2D6D2D9B01AC0150
:101470000E9487239B01AC01AEEDBBE00E9490224D
:101480004B015C01A3E4B3EEA70196010E94E123A6
:10149000BC01992777FD9095892F4501BB2497FCC6
:1014A000B094AB2C680D791D8A1D9B1D6153714F43
:1014B0008F4F9F4F54E095958795779567955A95EF
:1014C000D1F76C0D7D1D8E1D9F1D24E630E040E0A0
:1014D00050E00E94B923CA01B9010E9473214B0157
:1014E0005C016BE3C62EDD24D39466E970E080E0F6
:1014F00090E00E949C01D801E5E01D92EA95E9F791
:101500000E94CE018FB7F8944090030250900402DD
:1015100060900502709006028FBF8091A1030E9427
:10152000BF00019709F0E5C02FB7F894809103023E
:1015300090910402A0910502B09106022FBF841978
:101540009509A609B7098D329140A105B10528F387
:101550009DEFE92EF12C84E790E00E94DE02B701B6
:10156000FF0C880B990B0E9473210E94550766E9B6
:1015700070E080E090E00E949C01F80125E011926B
:101580002A95E9F70E94CE018FB7F89440900302A4
:101590005090040260900502709006028FBF809107
:1015A000A1030E94BF00019709F0D8C02FB7F8949B
:1015B0008091030290910402A0910502B09106026D
:1015C0002FBF84199509A609B7098D329140A1054D
:1015D000B10528F36DEF70E0072E000C880B990B16
:1015E0000E9473212B013C0181E790E00E94DE0202
:1015F000C301B2010E945507B0E4B0937C00809112
:101600007A00806480937A0080917A0086FDFCCF16
:10161000E0907800F09079008EE690E00E94DE0283
:10162000B701FF0C880B990B0E9473210E9455078C
:101630008BE690E00E94DE02C501B4010E945507CE
:1016400020E030E044E352E4C301B2010E947D2374
:1016500018160CF0B8C0E1E0E0938E0180918C0187
:1016600090918D0120918E01222309F414C1892BC0
:1016700009F0D8C080918A0190918B010E949A173D
:1016800061E089E00E94180161E08AE00E94460161
:10169000E9ECF0E08491833009F4DFC008F096C0F3
:1016A000813009F4A8C0823009F4D1C061E08AE039
:1016B0000E941801A5C0813029F468E070E080E044
:1016C00090E098CD823029F46EE070E080E090E008
:1016D00091CD6AE170E080E090E08CCDA7019601A9
:1016E0000E94972369017A01CC0CDD1CEE1CFF1CC3
:1016F000B7CE8091A1030E94BF00892B59F5C60186
:101700000197F1F78091A1030E94BF00019711F5A5
:10171000C6010197F1F778010E94E800D7018D9387
:101720007D018D3F09F414CF2A163B06A9F7E98005
:10173000F12C4D812A812E0D3F2D311D8B81280FDB
:10174000311D8C81820F932F911D992748171906FF
:1017500009F401CF8EEFE82EF12CFDCE8091A1038C
:101760000E94BF00892B61F5C6010197F1F78091B6
:10177000A1030E94BF00019719F5C6010197F1F777
:1017800078010E94E800D7018D937D018D3F09F417
:1017900021CF2A163B06A9F76B8170E04D81898124
:1017A0009A81890F9927991F9C01260F371F8C81D9
:1017B000820F932F911D99274817190609F40CCF12
:1017C0006EEF70E009CF10928E0148CF873009F498
:1017D00050C0883009F456C0843009F067CF80913A
:1017E000800080628093800080E890E090938B007E
:1017F00080938A0005C084B5806884BDF0E8F7BD99
:10180000E1E0F0E0F0938D01E0938C0160E083E093
:101810000E94180160E084E00E94180160E085E009
:101820000E94180188E690E00E94DE0260918E011D
:1018300070E090E080E04AE00E9411078DE391E0C3
:101840000E9404078EE390E00E94851B4ECE84B573
:10185000806284BD20E828BDD3CF8091800080685D
:101860008093800040E850E05093890040938800C6
:10187000C7CF8091B00080688093B00090E89093CB
:10188000B300BECF8091B00080628093B000A0E82A
:10189000A093B400B5CF892B29F260E089E00E94C3
:1018A000180161E08AE00E94460160E08AE00E943F
:1018B000180110928D0110928C010E948805809170
:1018C0008A0190918B010E946F16ACCFCF93DF936A
:1018D00000D0CDB7DEB701E010E089ED92E00E94C4
:1018E0004C02181619060CF0CAC080918A0190911A
:1018F0008B010E949A1789ED92E00E942A02898347
:101900001A82E0909F03F090A0038FEFE81AF80A84
:10191000C7010E941F08882399F020919B033091F2
:101920009C0380919F039091A003BE016F5F7F4F46
:10193000820F931F0E94BC24F092A003E0929F03A9
:1019400080E491E00E944D08882389F11092900173
:1019500010928F01109292011092910110929401B5
:10196000109293010E94880590E080E00E941F0879
:1019700020919B0330919C03811177C02115310583
:1019800019F0C9010E94E32010929C0310929B035E
:101990001092A00310929F0310929E0310929D0339
:1019A00080918A0190918B010E946F1696CF82E4FC
:1019B00091E00E944D08882329F010939001009334
:1019C0008F01C8CF84E491E00E944D08882349F03C
:1019D0001092900110928F01109392010093910147
:1019E000BDCF86E491E00E944D08882329F0109332
:1019F000900100938F01F0CF88E491E00E944D08A0
:101A0000882369F01092900110928F011092920138
:101A1000109291011093940100939301A3CF8AE453
:101A200091E00E944D08882329F0109390010093C3
:101A30008F01ECCF8CE491E00E944D08882349F09F
:101A40001092900110928F011093920100939101D6
:101A5000E1CF8EE491E00E944D08882309F482CF03
:101A60001093900100938F01EFCF1092A00310927A
:101A70009F036FE371E0C9010E94BC2491CF8FE105
:101A800090E00E94851B29CF0F931F93CF93DF9384
:101A90000FB6F8940F9208E811E021E040E850E01A
:101AA00060E571E086E69CE00E947C1D06E811E09E
:101AB00021E040E850E06CE571E083EB98E00E94A3
:101AC0007C1D04E811E020E040E850E065E671E0AC
:101AD0008EE998E00E947C1DC0918201D091830123
:101AE0000FB6F8940F92209721F4C0917E01D09107
:101AF0007F018E010E5F1F4FC8010E942A128C8940
:101B00009D89892B21F0CE010C960E942A1280918A
:101B1000D6028F5F8093D60280917E0190917F01E3
:101B2000C817D90709F044C0E0918E02F0918F02E6
:101B3000FD83EC83848195819F838E83A481B5810D
:101B400013961C930E931297158304838DE892E0ED
:101B50009B878A8780918D028F5F80938D02809111
:101B6000AF018F5F8093AF010F900FBE80917E0118
:101B700090917F01C817D90739F08F89988D0E94FD
:101B80007819CE010E9478198091D702882349F0F4
:101B900080917E0190917F01C817D90711F40E94AE
:101BA000EB130F900FBEDF91CF911F910F9108950E
:101BB0008091D80281508093D8020E94DD10D4CF4A
:101BC0000F931F93CF93DF9300D0CDB7DEB7E09193
:101BD000E902F091EA0282E08083E091E502F0916F
:101BE000E6021082E091E702F091E8028FEC808338
:101BF0001092F102E091ED02F091EE0286E0808316
:101C0000E091EB02F091EC02808180618083E091B1
:101C1000EB02F091EC02808188608083E091EB021E
:101C2000F091EC02808180688083E091EB02F0917A
:101C3000EC0280818F7D808383E080938403809198
:101C4000820390918303009711F00E94E32086E0C5
:101C500090E00E9447208C0187E7F801808386E7A7
:101C600093E092838183138280E290E09583848362
:101C7000109383030093820310920C0210920B02C4
:101C800010925A0210927C020E94420389E193E072
:101C900090930102809300028AE193E09093FF0108
:101CA0008093FE0181E0F8018383C8010E94C6048D
:101CB000882309F461C080ED8A8321E030E0AE0121
:101CC0004F5F5F4FBE016E5F7F4F809182039091A7
:101CD00083030E94A6058981853509F04DC08AEAF3
:101CE0000E94E40690938603809385038CEA0E9409
:101CF000E40690938803809387038EEA0E94E406AB
:101D000090938A038093890380EB0E94E40690936A
:101D100096038093950382EB0E94E40690939803C8
:101D20008093970384EB0E94E40690939A03809338
:101D3000990386EB0E94E40690938C0380938B03B7
:101D400088EB0E94E40690938E0380938D038AEBC8
:101D50000E94E4069093900380938F038CEB0E9483
:101D6000E40690939203809391038EEB0E94E40625
:101D700090939403809393038FE190E00E945E1D03
:101D80008C01009791F0FC019183808381E0838F27
:101D9000148EC8010E94BB13F801158214821182AF
:101DA00010821682C8010E946F1610938B01009357
:101DB0008A01C8010E946F1661E089E00E94460115
:101DC00061E08AE00E94460161E083E00E944601F2
:101DD00060E083E00E94180161E084E00E94460117
:101DE00060E084E00E94180161E085E00E94460105
:101DF00060E085E00E94180160E089E00E9418011F
:101E000061E08AE00E94460160E08AE00E941801D9
:101E100002E811E020E040E850E068E771E084E487
:101E20009DE00E947C1D0E94A11E0F900F90DF91EB
:101E3000CF911F910F9108951F920F920FB60F929D
:101E400011242F933F938F939F93AF93BF938091D0
:101E5000030290910402A0910502B0910602309114
:101E6000020223E0230F2D3758F50196A11DB11D65
:101E7000209302028093030290930402A093050230
:101E8000B09306028091070290910802A091090286
:101E9000B0910A020196A11DB11D80930702909393
:101EA0000802A0930902B0930A02BF91AF919F91DB
:101EB0008F913F912F910F900FBE0F901F9018950B
:101EC00026E8230F0296A11DB11DD2CF1F920F92BB
:101ED0000FB60F9211242F933F934F935F936F93FD
:101EE0007F938F939F93AF93BF93EF93FF9389ED6E
:101EF00092E00E946F02FF91EF91BF91AF919F918D
:101F00008F917F916F915F914F913F912F910F90A2
:101F10000FBE0F901F9018951F920F920FB60F9241
:101F200011242F938F939F93EF93FF93E091E902F6
:101F3000F091EA028081E091EF02F091F00282FDDF
:101F40001BC090818091F2028F5F8F732091F3020A
:101F5000821741F0E091F202F0E0E752FD4F958FD9
:101F60008093F202FF91EF919F918F912F910F90AB
:101F70000FBE0F901F9018958081F4CF1F920F9283
:101F80000FB60F9211242F933F934F935F936F934C
:101F90007F938F939F93AF93BF93EF93FF93809122
:101FA000B900887F803609F44AC0F0F5883209F418
:101FB000A7C018F5803109F49BC0B8F4882309F450
:101FC000F9C0883009F494C0FF91EF91BF91AF91AF
:101FD0009F918F917F916F915F914F913F912F9141
:101FE0000F900FBE0F901F901895883109F488C08C
:101FF000803251F78093510214C0803409F49DC09F
:1020000040F48033B9F38833F9F68093510285ECBC
:10201000B0C0803509F485C0883509F496C088348D
:1020200099F60E946608D0CF883909F48CC038F53B
:10203000883729F050F4883611F0803729F683E08C
:10204000809353021092FD0157C0883809F47BC079
:10205000803919F0803809F0B7CF8091FD018032C6
:1020600008F071C0E091FD0181E08E0F8093FD01C9
:102070008091BB00F0E0E352FE4F80833DC0803B87
:1020800039F0E0F4803A09F479C0883A09F09CCF3D
:1020900084E0809353021092DC011092DB01E09106
:1020A0000002F091010209958091DB0181110FC0BE
:1020B00081E08093DB011092BB0109C0803C09F4F0
:1020C000A6CF883C09F4A3CF883B09F07DCFE091EF
:1020D000DC0181E08E0F8093DC01F0E0E554FE4FDF
:1020E00080818093BB009091DC018091DB0129C04D
:1020F00080912E028093BB0085EC8093BC0064CF5E
:102100009091500280914F02981758F5E09150023B
:1021100081E08E0F80935002F0E0E15DFD4F808101
:10212000E9CFE091500281E08E0F809350028091C0
:10213000BB00F0E0E15DFD4F808390915002809103
:102140004F029817C8F285E8D8CFE091500281E09D
:102150008E0F809350028091BB00F0E0E15DFD4F57
:1021600080838091520281115CCF81E080932D02A7
:1021700084EA8093BC001092530226CF85EC8093B2
:10218000BC00109253028091FD01803230F4E09146
:10219000FD01F0E0E352FE4F10826091FD0170E01E
:1021A000E091FE01F091FF018DED91E00995109213
:1021B000FD010ACF1092510234CFE0918202F091DA
:1021C00083028081811107C08FEF9FEF9093B1014F
:1021D0008093B0010895E0918202F091830205801E
:1021E000F681E02D80819181F1CFFC01DB010FB6FA
:1021F000F8940F9240917D0250917E022D913C9176
:1022000011972F3F320711F18181928160917F02F6
:102210007081761749F04817590730F01D921C92CB
:1022200081E00F900FBE0895481B590B42175307CA
:10223000A8F7241B350B2D933C9380917F0280835C
:1022400080917D0290917E029283818380E0E9CF2C
:10225000CF93DF93DC011596ED91FC910680F78119
:10226000E02DA489B5898685978520893189EC017F
:102270003D832C83C089D1899B838A83CF010C96AF
:1022800011962D913C9112972817390721F4129637
:10229000DC93CE931197158A148A2C9121502C939C
:1022A0002091AE01211157C0A285B385848195810B
:1022B00026813781EC013D832C83C681D7819B83A6
:1022C0008A83CF01029611962D913C91129728177F
:1022D000390721F41296DC93CE9311971386128658
:1022E0002C9121502C93C6892091D5022C1710F4E3
:1022F000C093D50229E02C9FE0011124CF54DD4F7B
:102300000980DA81C02DD583C4834C815D815783D8
:102310004683AC81BD8113969C938E9312979D83C7
:102320008C83A689A29FD0011124AF54BD4FB387DF
:10233000A2878C918F5F8C93A0917E01B0917F01D9
:10234000968956968C91891730F581E08093AD017E
:10235000DF91CF910895A0919702B0919802B7872D
:10236000A68714962D913C911597318B208B14964E
:10237000CD91DC9115979B838A8315969C938E93C0
:10238000149786E992E0958B848B809196028F5FFB
:1023900080939602D1CF80E0DBCF0FB6F8940F92F6
:1023A00080917D0290917E020F900FBE08958091E2
:1023B000AE018F5F8093AE0108950FB6F8940F922F
:1023C000FC01928D0F900FBE81E0911180E0089585
:1023D000EF92FF920F931F93CF93DF93EC010FB611
:1023E000F8940F921E8D7C0181E1E80EF11C01E052
:1023F0001116D4F08FEF8E8F0F900FBE0FB6F8949A
:102400000F921D8D7E0188E0E80EF11C01E011168F
:10241000B4F08FEF8D8F0F900FBEDF91CF911F9192
:102420000F91FF90EF9008958989882319F3C701D0
:102430000E94281181110093AD011150D9CF8885D8
:10244000882339F3C7010E94281181110093AD013F
:102450001150DDCFCF93DF93FC01A085B185828140
:10246000938124813581EC013D832C83C481D58106
:102470009B838A8311968D919C9112978E179F074B
:1024800021F41296DC93CE931197118610868C91CD
:1024900081508C938C91DF91CF9108950F931F936E
:1024A000CF93DF938C01FB0180819181D80113963A
:1024B0008F3F9807F1F4E801AF81B88512968D91AE
:1024C0009C91139793838283EC01FD83EC83B58306
:1024D000A4831396FC93EE93129711870087F8015B
:1024E00080818F5F8083DF91CF911F910F9108953D
:1024F000D90112962D913C911397E9014881598198
:1025000084179507A8F7DACFFC017383628391875C
:1025100080874617570790F0421B530B848595859B
:1025200048175907C8F4BF016E5F7F4F8091B6010D
:102530009091B7010E944E1280E008954217530710
:1025400018F46217730740F4BF016E5F7F4F8091EC
:10255000B8019091B901EECF81E00895EF92FF921A
:102560000F931F93CF93DF93EC018B017A016C855E
:102570007D85600F711F9801A701CE010E94841212
:10258000811107C0DF91CF911F910F91FF90EF90C4
:1025900008958C859D85080F191FE889F989CE015A
:1025A0000995E5CFEF92FF920F931F93CF93DF939F
:1025B0008C017B01E091B801F091B9010580F681B1
:1025C000E02DC681D781CE0102960E942A128A8907
:1025D00082FF0FC0A701B801CE010E94AE12E889A8
:1025E000F989CE01DF91CF911F910F91FF90EF906C
:1025F00009948E7F8A8BF3CFE091B801F091B901F5
:10260000808181110DC08091B6019091B7019093A6
:10261000B9018093B801F093B701E093B601089532
:102620000580F681E02D6FEF7FEF808191810E9420
:10263000D212E2CFFF920F931F93CF93DF93EC015F
:10264000F62E00917D0210917E0280917E01909184
:102650007F0102960E942A12CF3FDC07E9F5FF2096
:10266000D9F1E0918502F0918602A0917E01B091AE
:102670007F011596FC93EE931497A0917E01B09183
:102680007F018481958117969C938E9316978091F4
:102690007E0190917F01A481B581029613969C934F
:1026A0008E93129780917E0190917F01029695837F
:1026B0008483E0917E01F0917F0184E892E093872A
:1026C0008287809184028F5F80938402DF91CF9113
:1026D0001F910F91FF900895C00FD11FE0917E01CF
:1026E000F0917F01D383C28360917E0170917F015D
:1026F000C017D10768F480918002909181026E5FCB
:102700007F4FDF91CF911F910F91FF900C944E124C
:1027100080918202909183026E5F7F4F0E944E12E1
:102720008091B0019091B101C817D90778F6D09384
:10273000B101C093B001CACFCF93DF93EB01609199
:102740007E0170917F01645F7F4F0E944E1261E0B5
:10275000CE01DF91CF910C941A13FC010396928362
:1027600081832FEF3FEF3483238396838583908784
:10277000878310820895CF93DF93EC010FB6F8940E
:102780000F92888199812B8D4C8DBC01249F600D07
:10279000711D11247D836C831A8E9B838A83215043
:1027A000330B429FB001439F700D1124860F971F7A
:1027B0009F838E838FEF8D8F8E8FCE0108960E9420
:1027C000AD13CE0141960E94AD130F900FBE81E074
:1027D000DF91CF9108950F920FB6F8940F921F9248
:1027E00011242F923F924F925F926F927F928F921D
:1027F0009F92AF92BF92CF92DF92EF92FF920F9390
:102800001F932F933F934F935F936F937F938F9378
:102810009F93AF93BF93CF93DF93EF93FF93A091D9
:102820007E01B0917F010DB60D920EB60D92809192
:10283000AE01882321F081E08093AD015DC010924C
:10284000AD01A0917E01B0917F01E0917E01F091F8
:102850007F012D913C918789908D82179307A8F075
:1028600080917E0190917F0180917E0190917F0106
:10287000259A2D9A2FEF87EA91E6215080409040CB
:10288000E1F700C000001D9AF5CF2091D50289E044
:1028900001C02150422F50E0849FF001859FF00D30
:1028A0001124EF54FD4F9081992399F3A181B281B6
:1028B00012966D917C9172836183289FC0011124CF
:1028C0008C549D4F6817790721F4858196819283F6
:1028D000818389E0849FF001859FF00D1124EF54DE
:1028E000FD4F0180F281E02D8681978190937F01D9
:1028F00080937E012093D502A0917E01B0917F014B
:10290000CD91CDBFDD91DEBFFF91EF91DF91CF91F2
:10291000BF91AF919F918F917F916F915F914F91F7
:102920003F912F911F910F91FF90EF90DF90CF90EB
:10293000BF90AF909F908F907F906F905F904F90DF
:102940003F902F901F900F900FBE0F9008958F9281
:102950009F92BF92CF92DF92EF92FF920F931F93BD
:10296000CF93DF930FB6F8940F928091AE01815010
:102970008093AE018091AE01882379F080E00F90C2
:102980000FBEDF91CF911F910F91FF90EF90DF90DD
:10299000CF90BF909F908F9008958091D802882308
:1029A00069F3E0909B02F0909C02F0E0E0E039E0F7
:1029B00041E08091960281115EC0EF2B11F00E94E0
:1029C000DD10E090AB01F090AC01E114F10409F4EA
:1029D0007DC189E0D82ECC24C3940FEF1FEF8091E6
:1029E000AE01811161C1C0917D02D0917E024E0184
:1029F0008FEF881A980A90927E0280927D0281144D
:102A00009104B9F480918202909183022091800216
:102A1000309181023093830220938202909381024D
:102A20008093800280917F028F5F80937F020E945B
:102A3000DD108091B0019091B101B12C88169906FA
:102A400008F026C1E0917E01F0917F01E689DE9ECB
:102A5000F0011124EF54FD4F8081823010F0BB242F
:102A6000B3948091AD01811103C0BB2009F425C14D
:102A7000C092AD0122C1D7011696ED91FC91A489B7
:102A8000B5896685778580899189EB019D838C83E3
:102A900080899189EC017B836A83BF01645F7F4FEA
:102AA00011960D911C9112970617170721F4129693
:102AB0009C938E931197158A148A8C9181508C93D4
:102AC000A285B3858481958166817781EC017D83C0
:102AD0006C8366817781EB019B838A83CF010296A9
:102AE00011960D911C9112970817190721F412964F
:102AF0007C936E931197138612862C9121502C9300
:102B0000A6892091D5022A1710F4A093D5023A9FE6
:102B1000D0011124AF54BD4F11960D90BC91A02D42
:102B2000B583A48314966D917C9115977783668302
:102B300014966D917C911597EB019B838A83159672
:102B40009C938E9314979689939FD0011124AF5430
:102B5000BD4FB387A2878C918F5F8C93A0917E012C
:102B6000B0917F0156968C91891708F022CF40933F
:102B7000AD011FCFE0918202F09183020580F681C2
:102B8000E02D0680F781E02D8281938188169906D9
:102B900028F49093B1018093B00154CFC285D385BE
:102BA0008481958126813781DC0115963C932E9393
:102BB000149726813781D90113969C938E9312978F
:102BC000CF01029649815A814817590711F43A8377
:102BD000298313861286288121502883A489B589E8
:102BE0001097F9F02685378540895189E9015D8381
:102BF0004C8340895189EA013B832A8311966D9168
:102C00007C9112979F01245F3F4F6217730721F455
:102C100012965C934E931197158A148A2C91215029
:102C20002C93A6892091D5022A1710F4A093D502DF
:102C3000DA9ED0011124AF54BD4F11960D90BC9176
:102C4000A02DB583A48314962D913C9115973783BD
:102C5000268314962D913C911597E9019B838A83D5
:102C600015969C938E93149796899D9DD00111245F
:102C7000AF54BD4FB387A2878C918F5F8C93E09147
:102C80007E01F0917F018689891710F4BB24B394EB
:102C9000E0918202F0918302808181116BCF1093C9
:102CA000B1010093B001CECE8091AB019091AC0107
:102CB00001969093AC018093AB01D1E0ED1AF1083D
:102CC00009F08DCE1092AC011092AB018091AD0154
:102CD000882309F453CE0E94EB1381E050CEAF92CB
:102CE000BF92DF92EF92FF920F931F93CF93DF93E8
:102CF00000D000D01F92CDB7DEB78C011D821C82A0
:102D000080E0780198E0E90EF11C0FB6F8940F927C
:102D1000D8015A962C915A975B969C915B972917EC
:102D200008F0B0C05A96DC905A975C964C915C972C
:102D300041118CC08D919C91892B11F080E00AC0CB
:102D4000F801E480F580E114F10431F580E0F80148
:102D500015821482D394D8015A96DC925A975196D0
:102D60009C91992321F0C80141960E94281181115C
:102D70000E94EB130F900FBE81E00F900F900F9009
:102D80000F900F90DF91CF911F910F91FF90EF90D7
:102D9000DF90BF90AF900895D70192968C91929753
:102DA000815092968C93929756962C915697919625
:102DB0009C91291759F28111C9CF5701B2E0AB0E8E
:102DC000B11CC5010E942A12F70181A1868B482FF0
:102DD00050E024E030E0241B350B358724879091A8
:102DE000D502981710F48093D50289E0849FD00112
:102DF000859FB00D1124AF54BD4F11960D90BC911D
:102E0000A02DF701B583A48314962D913C911597BD
:102E1000378326831496ED91FC911597B382A28295
:102E20001596BC92AE921497D7015696EC91569790
:102E3000E89FF0011124EF54FD4F1B96FC93EE9395
:102E40001A9780818F5F808381E081CF50E070E0AE
:102E500060E012968D919C910E94A324F801848DCC
:102E600022813381820F932F911D9383828324814A
:102E700035818217930708F461CF80819181938314
:102E800082835CCF2C813D81232B21F40F900FBED8
:102E900080E073CF811109C080917F028983809186
:102EA0007D0290917E029B838A830F900FBE0E94C9
:102EB000D7110FB6F8940F92F801858D8F3F09F462
:102EC000158ED8015E968C915E978F3F11F45E96B9
:102ED0001C920F900FBEBE016C5F7F4FCE0101961A
:102EE0000E94F510811120C00FB6F8940F92F801DE
:102EF000928D838D0F900FBE981310C06C817D81D1
:102F0000C7010E949C13C8010E94E8110E94A714E7
:102F1000811102C00E94EB1381E0F7CEC8010E942C
:102F2000E8110E94A714F8CFC8010E94E8110E947E
:102F3000A714AECF7F928F929F92AF92BF92CF9203
:102F4000DF92EF92FF920F931F93CF93DF9300D006
:102F500000D01F92CDB7DEB78C018FEF9FEF9D831E
:102F60008C83D12C90E0580121E1A20EB11C89E0A4
:102F7000782E24E0822E912C0FB6F8940F92D8016F
:102F80005A968C915A97882309F440C081505A96DA
:102F90008C935A978D919C91892BA1F480917E01FD
:102FA00090917F01892B39F0E0917E01F0917F01B2
:102FB00082A18F5F82A380917E0190917F01F801B1
:102FC00095838483D80118968C91882339F0C801A1
:102FD00008960E94281181110E94EB130F900FBEDA
:102FE000DD24D3948D2D0F900F900F900F900F90A4
:102FF000DF91CF911F910F91FF90EF90DF90CF90D5
:10300000BF90AF909F908F907F9008952C813D81CD
:10301000232B21F40F900FBED12CE4CF911109C0C6
:1030200080917F02898380917D0290917E029B83B3
:103030008A830F900FBE0E94D7110FB6F8940F929B
:10304000F801858D8F3F09F4158ED8015E968C911D
:103050005E978F3F11F45E961C920F900FBEBE01DB
:103060006C5F7F4FCE0101960E94F5108111AEC0BA
:10307000C8010E94DD11882309F4A2C0F8018081F3
:103080009181892B09F076C00FB6F8940F92E480F5
:10309000F580E114F10409F491C0F7018689E0910B
:1030A0007E01F0917F019689891708F07BC0D701D6
:1030B0001C962D913C911D9737FD0CC0E0917E012F
:1030C000F0917F0196899401291B31091D963C934B
:1030D0002E931C97879DC00111248F549D4FF7019B
:1030E000228533852817390709F054C06701F2E0BB
:1030F000CF0ED11CC6010E942A12E0917E01F091F0
:103100007F01E689D7015696EC938091D5028E1700
:1031100010F4E093D5027E9EF0011124EF54FD4F90
:103120000180F281E02DD7011596FC93EE93149760
:103130008481958117969C938E931697A481B5816F
:103140001396DC92CE921297D582C482D7015696FE
:10315000EC915697E79DF0011124EF54FD4F1B961B
:10316000FC93EE931A9780818F5F8083DD24D39444
:103170000F900FBE6C817D81C5010E949C13C80118
:103180000E94E8110E94A714811102C00E94EB1353
:1031900091E0F2CEE0917E01F0917F018689F70106
:1031A000868BE4CFE0917E01F0917F01DD24D39402
:1031B000D70191969C9186899817D0F2D12CD8CFBF
:1031C000C8010E94E8110E94A714E2CFC8010E9422
:1031D000E8110E94A714C8010E94DD118823C1F2E2
:1031E000DD2009F4FFCE0FB6F8940F92F801818923
:1031F000882309F47BC00688F789E02D908184E05C
:10320000891BD80114960D911C910115110509F423
:1032100001CFF80191A1981708F4982FD80156967C
:103220008C915697981709F4F5CE92962C91929717
:10323000213009F0EFCE56969C9356971C962D910F
:103240003C911D9737FD08C024E030E0291B31096F
:103250001D963C932E931C97B9E08B9FC0011124BF
:103260008F549D4FF801228533852817390709F0BF
:10327000D1CE7801F2E0EF0EF11CC7010E942A12B4
:10328000F801A6898091D5028A1710F4A093D5027F
:1032900089E08A9FD0011124AF54BD4F11960D9043
:1032A000BC91A02DF801B583A48314962D913C9177
:1032B0001597378326831496ED91FC911597F38229
:1032C000E2821596FC92EE921497D8015696EC91F4
:1032D0005697E89FF0011124EF54FD4F1B96FC9385
:1032E000EE931A9780818F5F808394CE80E089CFA0
:1032F000CF93DF93009751F0EC010E94D711CE01DC
:103300000E94E320DF91CF910C94A714DF91CF911D
:103310000895CF93DF93CDB7DEB72A970FB6F89411
:10332000DEBF0FBECDBFE091B801F091B9011081B1
:10333000F12CE12C112329F00580F681E02DE080AD
:10334000F1800E94D7110E94CD116C018091B201D1
:103350009091B301C816D90608F08CC00E94FC12E7
:10336000D092B301C092B2010E94A7140091B4019F
:103370001091B5011A86198680E06801F1E1CF0E3F
:10338000D11C0FB6F8940F92D8015A96FC905A9718
:10339000FF2009F430C15C964C915C97442301F105
:1033A00050E016968D919C911797840F951F179654
:1033B0009C938E93169714962D913C911597821796
:1033C000930738F08D919C91119717969C938E934B
:1033D0001697F80166817781CE0101960E94A32499
:1033E000FA94D8015A96FC925A9718968C91882391
:1033F00039F0C80108960E94281181110E94EB1330
:103400000F900FBED980D7FCB1CF0C811D81D801A0
:103410001A968D919C91892B21F0C80102960E94E9
:103420002A120E94CD117C018091B2019091B301CA
:10343000E816F90610F40E94FC12F092B301E09233
:10344000B201EFEFED0DE93008F090CF0E2E000C39
:10345000FF0BEF5CF54ED80152968C9152970C946D
:10346000D823B41AB41AF71ADF1AF11AB41AB41A14
:10347000F71ADF1AD092B301C092B201112351F0B2
:10348000CE14DF0470F00E94A714B601C7010E9499
:10349000D2126CCFE091B601F091B701808161E06A
:1034A000811160E00091B4011091B5010FB6F8945C
:1034B0000F92D8015D968C915D978F3F11F45D96C8
:1034C0001C92F801868D8F3F09F4168E0F900FBE67
:1034D000D8015A968C915A9781113CC05296ED9121
:1034E000FC91A0917E01B0917F011F96FC93EE9319
:1034F0001E97A0917E01B0917F01848195815196A4
:103500009C938E93509780917E0190917F01A4812E
:10351000B5810C9613969C938E93129780917E01A1
:1035200090917F010C9695838483E0917E01F091C8
:103530007F01C8014196958B848BF80181898F5F4B
:10354000818BC7018C199D09662311F08FEF9FEFC6
:103550000E941A13C8010E94E8110E94A714811149
:1035600005CF0E94EB1302CF8160F801828BCA80E5
:10357000DB80648575856C0D7D1D9601A701C801F2
:103580000E948412882309F4F1CED80152968C91BE
:10359000529782FF10C01C966D917C916C0D7D1D21
:1035A000A701C8010E94AE12D8015096ED91FC917E
:1035B000C8010995DBCE8E7FF801828BF5CF816043
:1035C00052968C9352976A817B811D967C936E9361
:1035D0001C976E0D7F1D9701A701C8010E948412E0
:1035E000C5CE81FD04C0C8010E947819BFCE8E7F70
:1035F000F801828BBBCE29853A85232B19F40F90D5
:103600000FBE91CE811109C080917F028E8380917F
:103610007D0290917E0298878F830F900FBE0E944B
:10362000D7110FB6F8940F92F801858D8F3F09F4EA
:10363000158ED8015E968C915E978F3F11F45E9641
:103640001C920F900FBEBE01675F7F4FCE010696A2
:103650000E94F51081111BC0C8010E94DD11882352
:1036600081F069857A85C6010E949C13C8010E9479
:10367000E8110E94A714811102C00E94EB1381E09F
:1036800080CEC8010E94E8110E94A714F8CFC8019B
:103690000E94E8110E94A714C8010E94DD1188232E
:1036A00071F341CE00E010E08091AF0181110CC0B8
:1036B0008091B102823010F00E94EB1301151105C8
:1036C00099F30E946202F0CF0FB6F8940F92E09146
:1036D0009202F0919302C681D781CE0102960E9498
:1036E0002A128091D80281508093D8028091AF0134
:1036F00081508093AF010F900FBE8F89988D0E94EB
:103700007819CE010E947819CFCFCF93DF93EC01C7
:103710000E94D71160E0CE010E941A130E94A714E4
:10372000811102C00E94EB13DF91CF9108950F9297
:103730000FB6F8940F921F9211242F923F924F923E
:103740005F926F927F928F929F92AF92BF92CF9231
:10375000DF92EF92FF920F931F932F933F934F931C
:103760005F936F937F938F939F93AF93BF93CF9309
:10377000DF93EF93FF93A0917E01B0917F010DB68F
:103780000D920EB60D9213BE8091AE018111F9C05B
:1037900080917D0290917E02019690937E028093AB
:1037A0007D02009781F52091820230918302409141
:1037B00080025091810250938302409382023093A1
:1037C00081022093800220917F022F5F20937F024D
:1037D000E0918202F09183022081211107C02FEF36
:1037E0003FEF3093B1012093B0010DC0E091820210
:1037F000F09183020580F681E02D208131813093A4
:10380000B1012093B0012091B0013091B101821734
:10381000930710F420E0A1C020E039E0D32EE0911E
:103820008202F09183023081311107C08FEF9FEF48
:103830009093B1018093B00190C0E0918202F09129
:1038400083020580F681E02D0680F781E02D42811C
:1038500053818417950728F45093B1014093B00128
:103860007CC0A285B3854481558166817781EA0158
:103870007D836C8366817781EB015B834A83AF0133
:103880004E5F5F4F11960D911C911297041715070B
:1038900021F412967C936E931197138612863C91B5
:1038A00031503C93A489B5891097F9F066857785E6
:1038B00000891189EB011D830C8300891189E801BE
:1038C0007B836A831196ED90FC901297BF01645F31
:1038D0007F4FE616F70621F412961C930E9311976C
:1038E000158A148A3C9131503C93A6893091D502B7
:1038F0003A1710F4A093D502DA9ED0011124AF54E8
:10390000BD4F11960D90BC91A02DB583A483149644
:103910006D917C9115977783668314966D917C9158
:103920001597EB015B834A8315965C934E9314972E
:1039300046894D9DD0011124AF54BD4FB387A28756
:103940003C913F5F3C93E0917E01F0917F0136898D
:10395000341708F064CF21E062CFE0917E01F0914E
:103960007F01E689D9E0ED9FF0011124EF54FD4F6E
:103970008081823008F021E08091AD0181110EC07C
:103980000AC08091AB019091AC0101969093AC017B
:103990008093AB0168C0222309F465C08091AE0119
:1039A000882321F081E08093AD015DC01092AD01CC
:1039B000A0917E01B0917F01E0917E01F0917F01A5
:1039C0002D913C918789908D82179307A8F0809163
:1039D0007E0190917F0180917E0190917F01259AD7
:1039E0002D9A2FEF87EA91E6215080409040E1F731
:1039F00000C000001D9AF5CF2091D50289E001C0DA
:103A00002150422F50E0849FF001859FF00D11243A
:103A1000EF54FD4F9081992399F3A181B2811296C1
:103A20006D917C9172836183289FC00111248C5415
:103A30009D4F6817790721F4858196819283818350
:103A400089E0849FF001859FF00D1124EF54FD4F14
:103A50000180F281E02D8681978190937F01809390
:103A60007E012093D502A0917E01B0917F01CD917E
:103A7000CDBFDD91DEBFFF91EF91DF91CF91BF917F
:103A8000AF919F918F917F916F915F914F913F91F6
:103A90002F911F910F91FF90EF90DF90CF90BF90EB
:103AA000AF909F908F907F906F905F904F903F90DE
:103AB0002F901F900F900FBE0F900895CF93DF931C
:103AC000EC010E94D711CE010E944720EC010E9418
:103AD000A714209769F4259A2D9A2FEF80E792E09A
:103AE000215080409040E1F700C000001D9AF5CFC2
:103AF000CE01DF91CF9108957F928F929F92AF92E6
:103B0000BF92CF92DF92EF92FF920F931F93CF93CA
:103B1000DF93982EA92E762E872E7A01B22ECA0117
:103B20000E945E1D6C01892B09F4EAC088E290E0D6
:103B30000E945E1DEC01892B09F4DFC088E2DE01E2
:103B40001D928A95E9F7D88ECF8AA70165EA70E0C1
:103B5000C6010E94AC24B1E0EB1AF108EF89F88DA0
:103B6000EE0DFF1D672D782DCE0149969B01285F34
:103B70003F4FDB014D91BD01DC014D93CD01AB0108
:103B800041505109DA014C91442319F0621773072F
:103B900081F718A2BE8AB9A21B861A861D8A1C8AC2
:103BA000D987C88784E090E08B1991099D878C871D
:103BB000DB8BCA8B9082DF011197AC9211971C921C
:103BC000119780E88C9311971C9257971C9211972C
:103BD0001C92B397F983E883F801D183C0830FB6B1
:103BE000F8940F928091D8028F5F8093D8028091D1
:103BF0007E0190917F01892B09F091C0D0937F01C4
:103C0000C0937E018091D802813081F581EB92E0F2
:103C10000E94AD138AEB92E00E94AD1383EC92E018
:103C20000E94AD138CEC92E00E94AD1388EA92E002
:103C30000E94AD138FE992E00E94AD1386E992E0F5
:103C40000E94AD138DE892E00E94AD1384E892E0EB
:103C50000E94AD1388EA92E09093830280938202DF
:103C60008FE992E090938102809380028091D60246
:103C70008F5F8093D602AE898091D5028A1710F4A7
:103C8000A093D50229E02A9FD0011124AF54BD4F43
:103C900011960D90BC91A02DBD83AC8314968D918F
:103CA0009C9115979F838E831496ED91FC911597A7
:103CB000CE0102969383828315969C938E931497DC
:103CC000EE89E29FF0011124EF54FD4FFB87EA8754
:103CD00080818F5F80830F900FBE8091D7028823F1
:103CE00051F0E0917E01F0917F0196898E899817BD
:103CF00010F40E94EB1381E004C0C6010E94781901
:103D00008FEFDF91CF911F910F91FF90EF90DF9098
:103D1000CF90BF90AF909F908F907F9008958091AB
:103D2000D7028111A3CFE0917E01F0917F019689A6
:103D30008E89891708F49ACFD0937F01C0937E01B2
:103D400095CF0F931F93CF93DF9309EA11E020E003
:103D500040EC50E06BE671E082E59BE10E947C1D47
:103D6000813009F08CC00FB6F8940F928091B401A5
:103D70009091B501892B49F58EE991E00E94AD1330
:103D800085E991E00E94AD138EE991E09093B9012D
:103D90008093B80185E991E09093B7018093B601D3
:103DA00081E590E00E945E1DEC01009751F04F9676
:103DB000998388838AE08B8F85E08C8FCE010E9467
:103DC000BB13D093B501C093B4010F900FBE809187
:103DD000B4019091B501892B09F451C007EA11E0B3
:103DE00023E045E550E060E771E089E899E10E9451
:103DF0007C1D813009F043C0F8942FEF3FEF3093E2
:103E0000B1012093B0018093D70210927E021092EC
:103E10007D02A89588E190EC0FB6F894A895809360
:103E200060000FBE90936000A0917E01B0917F0171
:103E3000CD91CDBFDD91DEBFFF91EF91DF91CF91AD
:103E4000BF91AF919F918F917F916F915F914F91B2
:103E50003F912F911F910F91FF90EF90DF90CF90A6
:103E6000BF90AF909F908F907F906F905F904F909A
:103E70003F902F901F900F900FBE0F90089580914C
:103E80000001DF91CF911F910F9108950E94971B20
:103E900018951092DC021092DB0288EE93E0A0E00D
:103EA000B0E08093DD029093DE02A093DF02B09336
:103EB000E00221E131E03093DA022093D90225ECCF
:103EC00030E03093E6022093E50224EC30E03093BA
:103ED000E8022093E70220EC30E03093EA022093DE
:103EE000E90221EC30E03093EC022093EB0222EC6B
:103EF00030E03093EE022093ED0226EC30E0309378
:103F0000F0022093EF021092F2021092F30210924C
:103F1000F4021092F50210927903109278038093C4
:103F20007A0390937B03A0937C03B0937D0383E299
:103F300091E0909377038093760382E090E09093F2
:103F4000A2038093A10361E00E94460161E0809199
:103F5000A1030E94180110929C0310929B031092DF
:103F60009E0310929D031092A00310929F0390E075
:103F700080E00E941F0820919B0330919C038111D7
:103F800017C02115310519F0C9010E94E3201092D4
:103F90009C0310929B031092A00310929F03109217
:103FA0009E0310929D031092830310928203089542
:103FB0001092A00310929F036FE371E0C9010E9469
:103FC000BC24F1CF789484B5826084BD84B58160CF
:103FD00084BD85B5826085BD85B5816085BD8091D4
:103FE0006E00816080936E0010928100809181004C
:103FF0008260809381008091810081608093810044
:10400000809180008160809380008091B100846005
:104010008093B1008091B00081608093B000809166
:104020007A00846080937A0080917A008260809325
:104030007A0080917A00816080937A0080917A0082
:10404000806880937A001092C10020910501309120
:1040500006018FEF98E0821B930B909302018093EF
:1040600001010E94E00D0E94A11E0E94E00DC0E02F
:10407000D0E02097F1F30E946202FBCF80919B0376
:1040800090919C03009711F00C94E32008950F93F6
:104090001F93CF93DF938230910510F482E090E07C
:1040A000E091A503F091A60330E020E0B0E0A0E0AD
:1040B000309799F42115310509F44AC0281B390BB2
:1040C00024303105D8F58A819B816115710589F10C
:1040D000FB0193838283FE0111C0408151810281E3
:1040E000138148175907E0F04817590799F41097BA
:1040F00061F012960C93129713961C933296CF018F
:10410000DF91CF911F910F9108950093A503109314
:10411000A603F4CF2115310551F04217530738F0AB
:10412000A901DB019A01BD01DF01F801C1CFEF0157
:10413000F9CF9093A6038093A503CDCFFE01E20FA4
:10414000F31F819391932250310939832883D7CF6C
:104150002091A3033091A403232B41F42091030168
:10416000309104013093A4032093A3032091010113
:10417000309102012115310541F42DB73EB7409130
:10418000050150910601241B350BE091A303F0912A
:10419000A403E217F307A0F42E1B3F0B28173907DF
:1041A00078F0AC014E5F5F4F2417350748F04E0F93
:1041B0005F1F5093A4034093A303819391939FCFD8
:1041C000F0E0E0E09CCFCF93DF930097E9F0FC01B3
:1041D000329713821282A091A503B091A603ED013C
:1041E00030E020E01097A1F420813181820F931FED
:1041F0002091A3033091A4032817390709F061C067
:10420000F093A403E093A303DF91CF910895EA0113
:10421000CE17DF07E8F54A815B819E014115510504
:10422000B1F7E901FB83EA8349915991C40FD51F86
:10423000EC17FD0761F4808191810296840F951F30
:10424000E90199838883828193819B838A83F0E04B
:10425000E0E012968D919C9113970097B9F52D91FE
:104260003C911197CD010296820F931F2091A303D9
:104270003091A4032817390739F6309751F5109279
:10428000A6031092A503B093A403A093A303BCCFED
:10429000D383C28340815181840F951FC817D907EA
:1042A00061F44E5F5F4F88819981480F591F518398
:1042B00040838A819B81938382832115310509F094
:1042C000B0CFF093A603E093A5039ECFFD01DC01E0
:1042D000C0CF13821282D7CF0E94AE2108F481E0B2
:1042E0000895E89409C097FB3EF4909580957095E9
:1042F00061957F4F8F4F9F4F9923A9F0F92F96E932
:10430000BB279395F695879577956795B795F111A6
:10431000F8CFFAF4BB0F11F460FF1BC06F5F7F4F43
:104320008F4F9F4F16C0882311F096E911C0772355
:1043300021F09EE8872F762F05C0662371F096E85E
:10434000862F70E060E02AF09A95660F771F881F2D
:10435000DAF7880F9695879597F90895990F0008D1
:10436000550FAA0BE0E8FEEF16161706E807F90747
:10437000C0F012161306E407F50798F0621B730BE2
:10438000840B950B39F40A2661F0232B242B252B63
:1043900021F408950A2609F4A140A6958FEF811D06
:1043A000811D08950E94E5210C9456220E94482206
:1043B00038F00E944F2220F0952311F00C943F22F8
:1043C0000C94452211240C948A220E94672270F3D7
:1043D000959FC1F3950F50E0551F629FF001729FAA
:1043E000BB27F00DB11D639FAA27F00DB11DAA1FB9
:1043F000649F6627B00DA11D661F829F2227B00D06
:10440000A11D621F739FB00DA11D621F839FA00D90
:10441000611D221F749F3327A00D611D231F849FE0
:10442000600D211D822F762F6A2F11249F57504037
:104430009AF0F1F088234AF0EE0FFF1FBB1F661FB2
:10444000771F881F91505040A9F79E3F510580F07B
:104450000C943F220C948A225F3FE4F3983ED4F3FD
:10446000869577956795B795F795E7959F5FC1F71F
:10447000FE2B880F911D9695879597F9089597F9CA
:104480009F6780E870E060E008959FEF80EC0895FA
:1044900000240A9416161706180609060895002423
:1044A0000A9412161306140605060895092E03949D
:1044B000000C11F4882352F0BB0F40F4BF2B11F411
:1044C00060FF04C06F5F7F4F8F4F9F4F089557FD70
:1044D0009058440F551F59F05F3F71F04795880F72
:1044E00097FB991F61F09F3F79F087950895121609
:1044F00013061406551FF2CF4695F1DF08C01616B5
:1045000017061806991FF1CF869571056105089465
:104510000895E894BB2766277727CB0197F908957C
:104520000E94D222A59F900DB49F900DA49F800D54
:10453000911D112408952F923F924F925F926F9296
:104540007F928F929F92AF92BF92CF92DF92EF9223
:10455000FF920F931F93CF93DF93CDB7DEB7CA1BA4
:10456000DB0B0FB6F894DEBF0FBECDBF09942A88CF
:10457000398848885F846E847D848C849B84AA8477
:10458000B984C884DF80EE80FD800C811B81AA8104
:10459000B981CE0FD11D0FB6F894DEBF0FBECDBFCF
:1045A000ED010895A29FB001B39FC001A39F700DBC
:1045B000811D1124911DB29F700D811D1124911D2B
:1045C00008955058BB27AA270E94F9220C9456221E
:1045D0000E94482238F00E944F2220F039F49F3F79
:1045E00019F426F40C9445220EF4E095E7FB0C94A4
:1045F0003F22E92F0E94672258F3BA176207730718
:104600008407950720F079F4A6F50C9489220EF41E
:10461000E0950B2EBA2FA02D0B01B90190010C01D2
:10462000CA01A0011124FF27591B99F0593F50F4EA
:10463000503E68F11A16F040A22F232F342F442742
:10464000585FF3CF469537952795A795F04053953A
:10465000C9F77EF41F16BA0B620B730B840BBAF00A
:104660009150A1F0FF0FBB1F661F771F881FC2F775
:104670000EC0BA0F621F731F841F48F48795779589
:104680006795B795F7959E3F08F0B0CF9395880F43
:1046900008F09927EE0F9795879508950E946F224D
:1046A00088F09F5798F0B92F9927B751B0F0E1F0F3
:1046B000660F771F881F991F1AF0BA95C9F714C0A3
:1046C000B13091F00E948922B1E008950C948922C2
:1046D000672F782F8827B85F39F0B93FCCF38695DC
:1046E00077956795B395D9F73EF490958095709539
:1046F00061957F4F8F4F9F4F08950E94AE2108F420
:104700008FEF08950E94AE21880B990B0895DB016D
:104710008F939F930E949022BF91AF91A29F800D93
:10472000911DA39F900DB29F900D11240895A1E2B9
:104730001A2EAA1BBB1BFD010DC0AA1FBB1FEE1F1B
:10474000FF1FA217B307E407F50720F0A21BB30B66
:10475000E40BF50B661F771F881F991F1A9469F7E2
:1047600060957095809590959B01AC01BD01CF013E
:104770000895052E97FB1EF400940E94D02357FD48
:1047800007D00E94972307FC03D04EF40C94D0234B
:1047900050954095309521953F4F4F4F5F4F08956D
:1047A00090958095709561957F4F8F4F9F4F08959D
:1047B000EE0FFF1F0590F491E02D0994B7FF0C94C4
:1047C00090220E949022821B930B0895B0E0A0E0FB
:1047D000ECEEF3E20C949D228C01009751F4CB0196
:1047E0000E9447208C01C801CDB7DEB7E0E10C94F0
:1047F000B922FC01E60FF71F9C0122503109E21794
:10480000F30708F49DC0D901CD91DC911197C6172B
:10481000D70798F0C530D10530F3CE01049786173D
:10482000970708F3C61BD70B2297C193D1936D93BB
:104830007C93CF010E94E320D6CF5B01AC1ABD0A66
:104840004C018C0E9D1EA091A503B091A603512C86
:10485000412CF12CE12C109731F58091A30390911C
:10486000A4038815990509F05CC04616570608F0A0
:1048700058C08091010190910201009741F48DB7D9
:104880009EB74091050150910601841B950BE817D6
:10489000F90708F055C0F093A403E093A303F901CE
:1048A00071836083A0CF8D919C91119712966C902B
:1048B000129713967C901397A815B90559F56C01BA
:1048C00042E0C40ED11CCA14DB0420F1AC014A1929
:1048D0005B09DA011296159780F062827382518328
:1048E0004083D9016D937C93E114F10471F0D701F9
:1048F0001396FC93EE93129776CF22968C0F9D1F02
:10490000F90191838083F301EFCFF093A603E09345
:10491000A50369CF4816590608F42C017D01D3017F
:104920009ACFCB010E9447207C01009749F0AE014D
:10493000B8010E94A324C8010E94E320870153CF3D
:1049400010E000E050CFFB01DC0102C001900D92AD
:1049500041505040D8F70895DC0101C06D9341509B
:104960005040E0F70895FB01DC018D910190801922
:104970000110D9F3990B0895FB01DC0101900D9210
:104980000020E1F7089510E0CBE6D0E004C0FE017E
:104990000E94D8232196CC36D107C9F7F894FFCFCF
:1049A000030000A7038000030004000500000000CE
:1049B000009102EE011B02F9024C022A023E0200A3
:1049C000000000560529058505FF0422050F050096
:1049D000056E616E00696E66006F7666000D0A00F6
:1049E000300031003200330034003500360037002B
:1049F0004461746152656365697665004461746100
:104A000053656E6400426C696E6B0049444C45000E
:0E4A1000546D7220537663005374617274000B
:00000001FF
